{
  "contractName": "Arithmetic",
  "abi": [
    {
      "inputs": [
        {
          "internalType": "uint256",
          "name": "a",
          "type": "uint256"
        },
        {
          "internalType": "uint256",
          "name": "b",
          "type": "uint256"
        }
      ],
      "name": "add",
      "outputs": [
        {
          "internalType": "uint256",
          "name": "",
          "type": "uint256"
        }
      ],
      "stateMutability": "pure",
      "type": "function",
      "constant": true
    },
    {
      "inputs": [
        {
          "internalType": "uint256",
          "name": "a",
          "type": "uint256"
        },
        {
          "internalType": "uint256",
          "name": "b",
          "type": "uint256"
        }
      ],
      "name": "subtract",
      "outputs": [
        {
          "internalType": "uint256",
          "name": "",
          "type": "uint256"
        }
      ],
      "stateMutability": "pure",
      "type": "function",
      "constant": true
    },
    {
      "inputs": [
        {
          "internalType": "uint256",
          "name": "a",
          "type": "uint256"
        },
        {
          "internalType": "uint256",
          "name": "b",
          "type": "uint256"
        }
      ],
      "name": "multiply",
      "outputs": [
        {
          "internalType": "uint256",
          "name": "",
          "type": "uint256"
        }
      ],
      "stateMutability": "pure",
      "type": "function",
      "constant": true
    },
    {
      "inputs": [
        {
          "internalType": "uint256",
          "name": "a",
          "type": "uint256"
        },
        {
          "internalType": "uint256",
          "name": "b",
          "type": "uint256"
        }
      ],
      "name": "divide",
      "outputs": [
        {
          "internalType": "uint256",
          "name": "",
          "type": "uint256"
        }
      ],
      "stateMutability": "pure",
      "type": "function",
      "constant": true
    },
    {
      "inputs": [
        {
          "internalType": "uint256",
          "name": "a",
          "type": "uint256"
        },
        {
          "internalType": "uint256",
          "name": "b",
          "type": "uint256"
        }
      ],
      "name": "modulo",
      "outputs": [
        {
          "internalType": "uint256",
          "name": "",
          "type": "uint256"
        }
      ],
      "stateMutability": "pure",
      "type": "function",
      "constant": true
    }
  ],
  "bytecode": "0x608060405234801561000f575f80fd5b5061054a8061001d5f395ff3fe608060405234801561000f575f80fd5b5060043610610055575f3560e01c8063165c4a16146100595780633ef5e44514610089578063771602f7146100b9578063baaf073d146100e9578063f88e9fbf14610119575b5f80fd5b610073600480360381019061006e919061026d565b610149565b60405161008091906102ba565b60405180910390f35b6100a3600480360381019061009e919061026d565b61015e565b6040516100b091906102ba565b60405180910390f35b6100d360048036038101906100ce919061026d565b610173565b6040516100e091906102ba565b60405180910390f35b61010360048036038101906100fe919061026d565b610188565b60405161011091906102ba565b60405180910390f35b610133600480360381019061012e919061026d565b6101df565b60405161014091906102ba565b60405180910390f35b5f81836101569190610300565b905092915050565b5f818361016b9190610341565b905092915050565b5f81836101809190610374565b905092915050565b5f8082116101cb576040517f08c379a00000000000000000000000000000000000000000000000000000000081526004016101c290610401565b60405180910390fd5b81836101d7919061044c565b905092915050565b5f808211610222576040517f08c379a0000000000000000000000000000000000000000000000000000000008152600401610219906104c6565b60405180910390fd5b818361022e91906104e4565b905092915050565b5f80fd5b5f819050919050565b61024c8161023a565b8114610256575f80fd5b50565b5f8135905061026781610243565b92915050565b5f806040838503121561028357610282610236565b5b5f61029085828601610259565b92505060206102a185828601610259565b9150509250929050565b6102b48161023a565b82525050565b5f6020820190506102cd5f8301846102ab565b92915050565b7f4e487b71000000000000000000000000000000000000000000000000000000005f52601160045260245ffd5b5f61030a8261023a565b91506103158361023a565b92508282026103238161023a565b9150828204841483151761033a576103396102d3565b5b5092915050565b5f61034b8261023a565b91506103568361023a565b925082820390508181111561036e5761036d6102d3565b5b92915050565b5f61037e8261023a565b91506103898361023a565b92508282019050808211156103a1576103a06102d3565b5b92915050565b5f82825260208201905092915050565b7f4d6f64756c6f206279207a65726f0000000000000000000000000000000000005f82015250565b5f6103eb600e836103a7565b91506103f6826103b7565b602082019050919050565b5f6020820190508181035f830152610418816103df565b9050919050565b7f4e487b71000000000000000000000000000000000000000000000000000000005f52601260045260245ffd5b5f6104568261023a565b91506104618361023a565b9250826104715761047061041f565b5b828206905092915050565b7f4469766973696f6e206279207a65726f000000000000000000000000000000005f82015250565b5f6104b06010836103a7565b91506104bb8261047c565b602082019050919050565b5f6020820190508181035f8301526104dd816104a4565b9050919050565b5f6104ee8261023a565b91506104f98361023a565b9250826105095761050861041f565b5b82820490509291505056fea26469706673582212209aaad9801bd18fee13b08b23b73444d4db3e1888542ba74cba39ba6cd7926e6c64736f6c63430008150033",
  "immutableReferences": {},
  "source": "// SPDX-License-Identifier: MIT\npragma solidity ^0.8.0;\n\ncontract Arithmetic {\n    // Function to add two numbers\n    function add(uint256 a, uint256 b) public pure returns (uint256) {\n        return a + b;\n    }\n\n    // Function to subtract two numbers\n    function subtract(uint256 a, uint256 b) public pure returns (uint256) {\n        return a - b;\n    }\n\n    // Function to multiply two numbers\n    function multiply(uint256 a, uint256 b) public pure returns (uint256) {\n        return a * b;\n    }\n\n    // Function to divide two numbers\n    function divide(uint256 a, uint256 b) public pure returns (uint256) {\n        require(b > 0, \"Division by zero\");\n        return a / b;\n    }\n\n    // Function to calculate the remainder of division (modulo)\n    function modulo(uint256 a, uint256 b) public pure returns (uint256) {\n        require(b > 0, \"Modulo by zero\");\n        return a % b;\n    }\n}\n",
  "sourcePath": "/workspaces/smart_contracts/calculator/contracts/Calculator.sol",
  "compiler": {
    "name": "solc",
    "version": "0.8.21+commit.d9974bed.Emscripten.clang"
  },
  "schemaVersion": "3.4.15",
  "updatedAt": "2023-08-28T12:23:11.429Z",
  "networkType": "ethereum",
  "devdoc": {
    "kind": "dev",
    "methods": {},
    "version": 1
  },
  "userdoc": {
    "kind": "user",
    "methods": {},
    "version": 1
  }
}